{
  "address": "0x6290222b826375dd07b2a04095E09d0866D424aB",
  "abi": [
    {
      "inputs": [],
      "stateMutability": "nonpayable",
      "type": "constructor"
    },
    {
      "anonymous": false,
      "inputs": [
        {
          "indexed": false,
          "internalType": "string",
          "name": "ISBN",
          "type": "string"
        },
        {
          "indexed": false,
          "internalType": "string",
          "name": "title",
          "type": "string"
        },
        {
          "indexed": false,
          "internalType": "uint256",
          "name": "year",
          "type": "uint256"
        },
        {
          "indexed": false,
          "internalType": "string",
          "name": "writer",
          "type": "string"
        }
      ],
      "name": "bookAdded",
      "type": "event"
    },
    {
      "anonymous": false,
      "inputs": [
        {
          "indexed": false,
          "internalType": "string",
          "name": "ISBN",
          "type": "string"
        }
      ],
      "name": "bookDeleted",
      "type": "event"
    },
    {
      "anonymous": false,
      "inputs": [
        {
          "indexed": false,
          "internalType": "string",
          "name": "ISBN",
          "type": "string"
        },
        {
          "indexed": false,
          "internalType": "string",
          "name": "titleFrom",
          "type": "string"
        },
        {
          "indexed": false,
          "internalType": "string",
          "name": "titleTo",
          "type": "string"
        },
        {
          "indexed": false,
          "internalType": "uint256",
          "name": "yearFrom",
          "type": "uint256"
        },
        {
          "indexed": false,
          "internalType": "uint256",
          "name": "yearTo",
          "type": "uint256"
        },
        {
          "indexed": false,
          "internalType": "string",
          "name": "writerFrom",
          "type": "string"
        },
        {
          "indexed": false,
          "internalType": "string",
          "name": "writerTo",
          "type": "string"
        }
      ],
      "name": "bookEdited",
      "type": "event"
    },
    {
      "inputs": [
        {
          "internalType": "string",
          "name": "_ISBN",
          "type": "string"
        },
        {
          "internalType": "string",
          "name": "_title",
          "type": "string"
        },
        {
          "internalType": "uint256",
          "name": "_year",
          "type": "uint256"
        },
        {
          "internalType": "string",
          "name": "_writer",
          "type": "string"
        }
      ],
      "name": "addBook",
      "outputs": [],
      "stateMutability": "nonpayable",
      "type": "function"
    },
    {
      "inputs": [
        {
          "internalType": "string",
          "name": "_ISBN",
          "type": "string"
        },
        {
          "internalType": "string",
          "name": "_title",
          "type": "string"
        },
        {
          "internalType": "uint256",
          "name": "_year",
          "type": "uint256"
        },
        {
          "internalType": "string",
          "name": "_writer",
          "type": "string"
        }
      ],
      "name": "editBook",
      "outputs": [],
      "stateMutability": "nonpayable",
      "type": "function"
    },
    {
      "inputs": [
        {
          "internalType": "string",
          "name": "_ISBN",
          "type": "string"
        }
      ],
      "name": "getBookData",
      "outputs": [
        {
          "internalType": "string",
          "name": "",
          "type": "string"
        },
        {
          "internalType": "uint256",
          "name": "",
          "type": "uint256"
        },
        {
          "internalType": "string",
          "name": "",
          "type": "string"
        }
      ],
      "stateMutability": "view",
      "type": "function"
    },
    {
      "inputs": [
        {
          "internalType": "string",
          "name": "_ISBN",
          "type": "string"
        }
      ],
      "name": "removeBook",
      "outputs": [],
      "stateMutability": "nonpayable",
      "type": "function"
    }
  ],
  "transactionHash": "0x75a3408cd6c6e14917ea944b7f33bf199edf02dcce8fa4f9f0576af56863be7d",
  "args": [],
  "numDeployments": 1,
  "solcInputHash": "a20bf6e024790f52350979a26c3e88cc",
  "bytecode": "0x608060405234801561001057600080fd5b50600180546001600160a01b03191633179055610bf4806100326000396000f3fe608060405234801561001057600080fd5b506004361061004c5760003560e01c806301b70a6414610051578063598e14551461007c5780636e4a44c514610091578063a504330f146100a4575b600080fd5b61006461005f3660046108a2565b6100b7565b60405161007393929190610931565b60405180910390f35b61008f61008a366004610966565b610284565b005b61008f61009f3660046108a2565b610371565b61008f6100b2366004610966565b610466565b6060600060608484600082826040516100d1929190610a0a565b90815260200160405180910390206001015460000361010b5760405162461bcd60e51b815260040161010290610a1a565b60405180910390fd5b600080888860405161011e929190610a0a565b908152602001604051809103902060405180606001604052908160008201805461014790610a44565b80601f016020809104026020016040519081016040528092919081815260200182805461017390610a44565b80156101c05780601f10610195576101008083540402835291602001916101c0565b820191906000526020600020905b8154815290600101906020018083116101a357829003601f168201915b50505050508152602001600182015481526020016002820180546101e390610a44565b80601f016020809104026020016040519081016040528092919081815260200182805461020f90610a44565b801561025c5780601f106102315761010080835404028352916020019161025c565b820191906000526020600020905b81548152906001019060200180831161023f57829003601f168201915b50505091909252505081516020830151604090930151909b929a509850909650505050505050565b6001546001600160a01b031633146102ae5760405162461bcd60e51b815260040161010290610a7e565b600087876040516102c0929190610a0a565b9081526020016040518091039020600101546000146103165760405162461bcd60e51b8152602060048201526012602482015271109bdbdac8185b1c9958591e48195e1a5cdd60721b6044820152606401610102565b610325878787878787876106a1565b7f91fa1969f393b3d5c36550f8e48c97cc2f8356f806797c09c5a13180842c6e00878787878787876040516103609796959493929190610ad1565b60405180910390a150505050505050565b6001546001600160a01b0316331461039b5760405162461bcd60e51b815260040161010290610a7e565b8181600082826040516103af929190610a0a565b9081526020016040518091039020600101546000036103e05760405162461bcd60e51b815260040161010290610a1a565b600084846040516103f2929190610a0a565b908152604051908190036020019020600061040d8282610783565b60018201600090556002820160006104259190610783565b50507fdd098a667c912858f1b5cf9fc176810531ab53ba39348d92033b848561f368de8484604051610458929190610b21565b60405180910390a150505050565b86866000828260405161047a929190610a0a565b9081526020016040518091039020600101546000036104ab5760405162461bcd60e51b815260040161010290610a1a565b6001546001600160a01b031633146104d55760405162461bcd60e51b815260040161010290610a7e565b6000808a8a6040516104e8929190610a0a565b908152602001604051809103902060405180606001604052908160008201805461051190610a44565b80601f016020809104026020016040519081016040528092919081815260200182805461053d90610a44565b801561058a5780601f1061055f5761010080835404028352916020019161058a565b820191906000526020600020905b81548152906001019060200180831161056d57829003601f168201915b50505050508152602001600182015481526020016002820180546105ad90610a44565b80601f01602080910402602001604051908101604052809291908181526020018280546105d990610a44565b80156106265780601f106105fb57610100808354040283529160200191610626565b820191906000526020600020905b81548152906001019060200180831161060957829003601f168201915b50505050508152505090507fa01b3c784980da97bfb83b112686f56787c083adf570e5de351c268fc1c94bea8a8a83600001518b8b86602001518c88604001518d8d60405161067e9a99989796959493929190610b3d565b60405180910390a16106958a8a8a8a8a8a8a6106a1565b50505050505050505050565b604051806060016040528086868080601f016020809104026020016040519081016040528093929190818152602001838380828437600092019190915250505090825250602080820186905260408051601f860183900483028101830182528581529201919085908590819084018382808284376000920182905250939094525050604051909150610736908a908a90610a0a565b908152602001604051809103902060008201518160000190805190602001906107609291906107c0565b5060208281015160018301556040830151805161069592600285019201906107c0565b50805461078f90610a44565b6000825580601f1061079f575050565b601f0160209004906000526020600020908101906107bd9190610844565b50565b8280546107cc90610a44565b90600052602060002090601f0160209004810192826107ee5760008555610834565b82601f1061080757805160ff1916838001178555610834565b82800160010185558215610834579182015b82811115610834578251825591602001919060010190610819565b50610840929150610844565b5090565b5b808211156108405760008155600101610845565b60008083601f84011261086b57600080fd5b50813567ffffffffffffffff81111561088357600080fd5b60208301915083602082850101111561089b57600080fd5b9250929050565b600080602083850312156108b557600080fd5b823567ffffffffffffffff8111156108cc57600080fd5b6108d885828601610859565b90969095509350505050565b6000815180845260005b8181101561090a576020818501810151868301820152016108ee565b8181111561091c576000602083870101525b50601f01601f19169290920160200192915050565b60608152600061094460608301866108e4565b846020840152828103604084015261095c81856108e4565b9695505050505050565b60008060008060008060006080888a03121561098157600080fd5b873567ffffffffffffffff8082111561099957600080fd5b6109a58b838c01610859565b909950975060208a01359150808211156109be57600080fd5b6109ca8b838c01610859565b909750955060408a0135945060608a01359150808211156109ea57600080fd5b506109f78a828b01610859565b989b979a50959850939692959293505050565b8183823760009101908152919050565b60208082526010908201526f109bdbdac81a5cdb89dd08195e1a5cdd60821b604082015260600190565b600181811c90821680610a5857607f821691505b602082108103610a7857634e487b7160e01b600052602260045260246000fd5b50919050565b60208082526010908201526f2cb7ba93b932903737ba1030b236b4b760811b604082015260600190565b81835281816020850137506000828201602090810191909152601f909101601f19169091010190565b608081526000610ae560808301898b610aa8565b8281036020840152610af881888a610aa8565b90508560408401528281036060840152610b13818587610aa8565b9a9950505050505050505050565b602081526000610b35602083018486610aa8565b949350505050565b60e081526000610b5160e083018c8e610aa8565b8281036020840152610b63818c6108e4565b90508281036040840152610b78818a8c610aa8565b905087606084015286608084015282810360a0840152610b9881876108e4565b905082810360c0840152610bad818587610aa8565b9d9c5050505050505050505050505056fea2646970667358221220f9e30ef66a8af779767d5345b9d6eb74b65bedd08237eb56c535170e54b06f7564736f6c634300080d0033",
  "devdoc": {
    "kind": "dev",
    "methods": {},
    "version": 1
  },
  "userdoc": {
    "kind": "user",
    "methods": {},
    "version": 1
  },
  "storageLayout": {
    "storage": [
      {
        "astId": 13,
        "contract": "contracts/Perpustakaan.sol:Perpustakaaan",
        "label": "bookList",
        "offset": 0,
        "slot": "0",
        "type": "t_mapping(t_string_memory_ptr,t_struct(Book)8_storage)"
      },
      {
        "astId": 45,
        "contract": "contracts/Perpustakaan.sol:Perpustakaaan",
        "label": "owner",
        "offset": 0,
        "slot": "1",
        "type": "t_address"
      }
    ],
    "types": {
      "t_address": {
        "encoding": "inplace",
        "label": "address",
        "numberOfBytes": "20"
      },
      "t_mapping(t_string_memory_ptr,t_struct(Book)8_storage)": {
        "encoding": "mapping",
        "key": "t_string_memory_ptr",
        "label": "mapping(string => struct Perpustakaaan.Book)",
        "numberOfBytes": "32",
        "value": "t_struct(Book)8_storage"
      },
      "t_string_memory_ptr": {
        "encoding": "bytes",
        "label": "string",
        "numberOfBytes": "32"
      },
      "t_string_storage": {
        "encoding": "bytes",
        "label": "string",
        "numberOfBytes": "32"
      },
      "t_struct(Book)8_storage": {
        "encoding": "inplace",
        "label": "struct Perpustakaaan.Book",
        "members": [
          {
            "astId": 3,
            "contract": "contracts/Perpustakaan.sol:Perpustakaaan",
            "label": "title",
            "offset": 0,
            "slot": "0",
            "type": "t_string_storage"
          },
          {
            "astId": 5,
            "contract": "contracts/Perpustakaan.sol:Perpustakaaan",
            "label": "year",
            "offset": 0,
            "slot": "1",
            "type": "t_uint256"
          },
          {
            "astId": 7,
            "contract": "contracts/Perpustakaan.sol:Perpustakaaan",
            "label": "writer",
            "offset": 0,
            "slot": "2",
            "type": "t_string_storage"
          }
        ],
        "numberOfBytes": "96"
      },
      "t_uint256": {
        "encoding": "inplace",
        "label": "uint256",
        "numberOfBytes": "32"
      }
    }
  }
}